{
  "contractName": "LMS",
  "abi": [
    {
      "inputs": [],
      "stateMutability": "nonpayable",
      "type": "constructor"
    },
    {
      "anonymous": false,
      "inputs": [
        {
          "indexed": false,
          "internalType": "address",
          "name": "teacher",
          "type": "address"
        },
        {
          "indexed": false,
          "internalType": "string",
          "name": "newSchool",
          "type": "string"
        }
      ],
      "name": "SchoolChangeApproval",
      "type": "event"
    },
    {
      "anonymous": false,
      "inputs": [
        {
          "indexed": false,
          "internalType": "address",
          "name": "teacher",
          "type": "address"
        }
      ],
      "name": "SchoolChangeRejection",
      "type": "event"
    },
    {
      "anonymous": false,
      "inputs": [
        {
          "indexed": false,
          "internalType": "address",
          "name": "teacher",
          "type": "address"
        },
        {
          "indexed": false,
          "internalType": "string",
          "name": "newSchool",
          "type": "string"
        }
      ],
      "name": "SchoolChangeRequest",
      "type": "event"
    },
    {
      "inputs": [],
      "name": "headmaster",
      "outputs": [
        {
          "internalType": "address",
          "name": "",
          "type": "address"
        }
      ],
      "stateMutability": "view",
      "type": "function",
      "constant": true
    },
    {
      "inputs": [
        {
          "internalType": "address",
          "name": "",
          "type": "address"
        }
      ],
      "name": "teachers",
      "outputs": [
        {
          "components": [
            {
              "internalType": "string",
              "name": "name",
              "type": "string"
            },
            {
              "internalType": "string",
              "name": "email",
              "type": "string"
            },
            {
              "internalType": "string",
              "name": "password",
              "type": "string"
            },
            {
              "internalType": "string",
              "name": "serviceType",
              "type": "string"
            },
            {
              "internalType": "string",
              "name": "cnic",
              "type": "string"
            },
            {
              "internalType": "string",
              "name": "dob",
              "type": "string"
            },
            {
              "internalType": "string",
              "name": "contactNumber",
              "type": "string"
            },
            {
              "internalType": "string",
              "name": "maritalStatus",
              "type": "string"
            },
            {
              "internalType": "string",
              "name": "homeAddress",
              "type": "string"
            }
          ],
          "internalType": "struct LMS.TeacherInfo",
          "name": "info",
          "type": "tuple"
        },
        {
          "components": [
            {
              "internalType": "string",
              "name": "currentSchool",
              "type": "string"
            },
            {
              "internalType": "string",
              "name": "dateOfJoining",
              "type": "string"
            },
            {
              "internalType": "uint256",
              "name": "dateOfJoiningNewSchool",
              "type": "uint256"
            },
            {
              "internalType": "string",
              "name": "postedAs",
              "type": "string"
            },
            {
              "internalType": "bool",
              "name": "isRequestPending",
              "type": "bool"
            },
            {
              "internalType": "string",
              "name": "newSchoolRequest",
              "type": "string"
            }
          ],
          "internalType": "struct LMS.TeacherStatus",
          "name": "status",
          "type": "tuple"
        }
      ],
      "stateMutability": "view",
      "type": "function",
      "constant": true
    },
    {
      "inputs": [
        {
          "internalType": "address",
          "name": "teacherAddress",
          "type": "address"
        },
        {
          "components": [
            {
              "internalType": "string",
              "name": "name",
              "type": "string"
            },
            {
              "internalType": "string",
              "name": "email",
              "type": "string"
            },
            {
              "internalType": "string",
              "name": "password",
              "type": "string"
            },
            {
              "internalType": "string",
              "name": "serviceType",
              "type": "string"
            },
            {
              "internalType": "string",
              "name": "cnic",
              "type": "string"
            },
            {
              "internalType": "string",
              "name": "dob",
              "type": "string"
            },
            {
              "internalType": "string",
              "name": "contactNumber",
              "type": "string"
            },
            {
              "internalType": "string",
              "name": "maritalStatus",
              "type": "string"
            },
            {
              "internalType": "string",
              "name": "homeAddress",
              "type": "string"
            }
          ],
          "internalType": "struct LMS.TeacherInfo",
          "name": "info",
          "type": "tuple"
        },
        {
          "components": [
            {
              "internalType": "string",
              "name": "currentSchool",
              "type": "string"
            },
            {
              "internalType": "string",
              "name": "dateOfJoining",
              "type": "string"
            },
            {
              "internalType": "uint256",
              "name": "dateOfJoiningNewSchool",
              "type": "uint256"
            },
            {
              "internalType": "string",
              "name": "postedAs",
              "type": "string"
            },
            {
              "internalType": "bool",
              "name": "isRequestPending",
              "type": "bool"
            },
            {
              "internalType": "string",
              "name": "newSchoolRequest",
              "type": "string"
            }
          ],
          "internalType": "struct LMS.TeacherStatus",
          "name": "status",
          "type": "tuple"
        }
      ],
      "name": "addTeacher",
      "outputs": [],
      "stateMutability": "nonpayable",
      "type": "function"
    },
    {
      "inputs": [
        {
          "internalType": "address",
          "name": "teacherAddress",
          "type": "address"
        },
        {
          "components": [
            {
              "internalType": "string",
              "name": "name",
              "type": "string"
            },
            {
              "internalType": "string",
              "name": "email",
              "type": "string"
            },
            {
              "internalType": "string",
              "name": "password",
              "type": "string"
            },
            {
              "internalType": "string",
              "name": "serviceType",
              "type": "string"
            },
            {
              "internalType": "string",
              "name": "cnic",
              "type": "string"
            },
            {
              "internalType": "string",
              "name": "dob",
              "type": "string"
            },
            {
              "internalType": "string",
              "name": "contactNumber",
              "type": "string"
            },
            {
              "internalType": "string",
              "name": "maritalStatus",
              "type": "string"
            },
            {
              "internalType": "string",
              "name": "homeAddress",
              "type": "string"
            }
          ],
          "internalType": "struct LMS.TeacherInfo",
          "name": "info",
          "type": "tuple"
        },
        {
          "components": [
            {
              "internalType": "string",
              "name": "currentSchool",
              "type": "string"
            },
            {
              "internalType": "string",
              "name": "dateOfJoining",
              "type": "string"
            },
            {
              "internalType": "uint256",
              "name": "dateOfJoiningNewSchool",
              "type": "uint256"
            },
            {
              "internalType": "string",
              "name": "postedAs",
              "type": "string"
            },
            {
              "internalType": "bool",
              "name": "isRequestPending",
              "type": "bool"
            },
            {
              "internalType": "string",
              "name": "newSchoolRequest",
              "type": "string"
            }
          ],
          "internalType": "struct LMS.TeacherStatus",
          "name": "status",
          "type": "tuple"
        }
      ],
      "name": "updateTeacher",
      "outputs": [],
      "stateMutability": "nonpayable",
      "type": "function"
    },
    {
      "inputs": [
        {
          "internalType": "address",
          "name": "teacherAddress",
          "type": "address"
        }
      ],
      "name": "deleteTeacher",
      "outputs": [],
      "stateMutability": "nonpayable",
      "type": "function"
    },
    {
      "inputs": [
        {
          "internalType": "string",
          "name": "newSchool",
          "type": "string"
        }
      ],
      "name": "requestSchoolChange",
      "outputs": [],
      "stateMutability": "nonpayable",
      "type": "function"
    },
    {
      "inputs": [
        {
          "internalType": "address",
          "name": "teacherAddress",
          "type": "address"
        }
      ],
      "name": "approveSchoolChange",
      "outputs": [],
      "stateMutability": "nonpayable",
      "type": "function"
    },
    {
      "inputs": [
        {
          "internalType": "address",
          "name": "teacherAddress",
          "type": "address"
        }
      ],
      "name": "rejectSchoolChange",
      "outputs": [],
      "stateMutability": "nonpayable",
      "type": "function"
    },
    {
      "inputs": [
        {
          "internalType": "address",
          "name": "teacherAddress",
          "type": "address"
        }
      ],
      "name": "getTeacher",
      "outputs": [
        {
          "components": [
            {
              "internalType": "string",
              "name": "name",
              "type": "string"
            },
            {
              "internalType": "string",
              "name": "email",
              "type": "string"
            },
            {
              "internalType": "string",
              "name": "password",
              "type": "string"
            },
            {
              "internalType": "string",
              "name": "serviceType",
              "type": "string"
            },
            {
              "internalType": "string",
              "name": "cnic",
              "type": "string"
            },
            {
              "internalType": "string",
              "name": "dob",
              "type": "string"
            },
            {
              "internalType": "string",
              "name": "contactNumber",
              "type": "string"
            },
            {
              "internalType": "string",
              "name": "maritalStatus",
              "type": "string"
            },
            {
              "internalType": "string",
              "name": "homeAddress",
              "type": "string"
            }
          ],
          "internalType": "struct LMS.TeacherInfo",
          "name": "",
          "type": "tuple"
        },
        {
          "components": [
            {
              "internalType": "string",
              "name": "currentSchool",
              "type": "string"
            },
            {
              "internalType": "string",
              "name": "dateOfJoining",
              "type": "string"
            },
            {
              "internalType": "uint256",
              "name": "dateOfJoiningNewSchool",
              "type": "uint256"
            },
            {
              "internalType": "string",
              "name": "postedAs",
              "type": "string"
            },
            {
              "internalType": "bool",
              "name": "isRequestPending",
              "type": "bool"
            },
            {
              "internalType": "string",
              "name": "newSchoolRequest",
              "type": "string"
            }
          ],
          "internalType": "struct LMS.TeacherStatus",
          "name": "",
          "type": "tuple"
        }
      ],
      "stateMutability": "view",
      "type": "function",
      "constant": true
    }
  ],
  "bytecode": "0x608060405234801561000f575f80fd5b503360015f6101000a81548173ffffffffffffffffffffffffffffffffffffffff021916908373ffffffffffffffffffffffffffffffffffffffff160217905550612ef78061005d5f395ff3fe608060405234801561000f575f80fd5b5060043610610091575f3560e01c8063d58abef311610064578063d58abef314610107578063d8582eba14610123578063f0a47f781461013f578063f4d3191e14610170578063fb4326fa1461018c57610091565b80631eef18a51461009557806340453102146100b15780637b114231146100cd5780638e5ca136146100e9575b5f80fd5b6100af60048036038101906100aa9190612038565b6101bd565b005b6100cb60048036038101906100c691906120d9565b61036f565b005b6100e760048036038101906100e2919061245a565b61051f565b005b6100f161075f565b6040516100fe91906124f1565b60405180910390f35b610121600480360381019061011c91906120d9565b610784565b005b61013d6004803603810190610138919061245a565b610a4d565b005b610159600480360381019061015491906120d9565b610c8d565b604051610167929190612737565b60405180910390f35b61018a600480360381019061018591906120d9565b611433565b005b6101a660048036038101906101a191906120d9565b6115ec565b6040516101b4929190612737565b60405180910390f35b6040516020016101cc90612799565b604051602081830303815290604052805190602001205f803373ffffffffffffffffffffffffffffffffffffffff1673ffffffffffffffffffffffffffffffffffffffff1681526020019081526020015f205f01600401604051602001610233919061289c565b6040516020818303038152906040528051906020012003610289576040517f08c379a000000000000000000000000000000000000000000000000000000000815260040161028090612932565b60405180910390fd5b60015f803373ffffffffffffffffffffffffffffffffffffffff1673ffffffffffffffffffffffffffffffffffffffff1681526020019081526020015f206009016004015f6101000a81548160ff021916908315150217905550805f803373ffffffffffffffffffffffffffffffffffffffff1673ffffffffffffffffffffffffffffffffffffffff1681526020019081526020015f2060090160050190816103329190612adb565b507f7116e596a50918f5d1a27616ad8f1f6050096bd14df5998ed85ae652aa4528d83382604051610364929190612be2565b60405180910390a150565b60015f9054906101000a900473ffffffffffffffffffffffffffffffffffffffff1673ffffffffffffffffffffffffffffffffffffffff163373ffffffffffffffffffffffffffffffffffffffff16146103fe576040517f08c379a00000000000000000000000000000000000000000000000000000000081526004016103f590612c80565b60405180910390fd5b5f808273ffffffffffffffffffffffffffffffffffffffff1673ffffffffffffffffffffffffffffffffffffffff1681526020019081526020015f206009016004015f9054906101000a900460ff1661048c576040517f08c379a000000000000000000000000000000000000000000000000000000000815260040161048390612ce8565b60405180910390fd5b5f805f8373ffffffffffffffffffffffffffffffffffffffff1673ffffffffffffffffffffffffffffffffffffffff1681526020019081526020015f206009016004015f6101000a81548160ff0219169083151502179055507f0be95052311ef49b5cdbe8a4529da35f5a1238a72e3a0b095b790b34501d6ca88160405161051491906124f1565b60405180910390a150565b60015f9054906101000a900473ffffffffffffffffffffffffffffffffffffffff1673ffffffffffffffffffffffffffffffffffffffff163373ffffffffffffffffffffffffffffffffffffffff16146105ae576040517f08c379a00000000000000000000000000000000000000000000000000000000081526004016105a590612c80565b60405180910390fd5b6040518060400160405280838152602001828152505f808573ffffffffffffffffffffffffffffffffffffffff1673ffffffffffffffffffffffffffffffffffffffff1681526020019081526020015f205f820151815f015f820151815f0190816106199190612adb565b50602082015181600101908161062f9190612adb565b5060408201518160020190816106459190612adb565b50606082015181600301908161065b9190612adb565b5060808201518160040190816106719190612adb565b5060a08201518160050190816106879190612adb565b5060c082015181600601908161069d9190612adb565b5060e08201518160070190816106b39190612adb565b506101008201518160080190816106ca9190612adb565b5050506020820151816009015f820151815f0190816106e99190612adb565b5060208201518160010190816106ff9190612adb565b5060408201518160020155606082015181600301908161071f9190612adb565b506080820151816004015f6101000a81548160ff02191690831515021790555060a08201518160050190816107549190612adb565b505050905050505050565b60015f9054906101000a900473ffffffffffffffffffffffffffffffffffffffff1681565b60015f9054906101000a900473ffffffffffffffffffffffffffffffffffffffff1673ffffffffffffffffffffffffffffffffffffffff163373ffffffffffffffffffffffffffffffffffffffff1614610813576040517f08c379a000000000000000000000000000000000000000000000000000000000815260040161080a90612c80565b60405180910390fd5b5f808273ffffffffffffffffffffffffffffffffffffffff1673ffffffffffffffffffffffffffffffffffffffff1681526020019081526020015f206009016004015f9054906101000a900460ff166108a1576040517f08c379a000000000000000000000000000000000000000000000000000000000815260040161089890612ce8565b60405180910390fd5b5f808273ffffffffffffffffffffffffffffffffffffffff1673ffffffffffffffffffffffffffffffffffffffff1681526020019081526020015f206009016005015f808373ffffffffffffffffffffffffffffffffffffffff1673ffffffffffffffffffffffffffffffffffffffff1681526020019081526020015f206009015f0190816109309190612d2d565b50425f808373ffffffffffffffffffffffffffffffffffffffff1673ffffffffffffffffffffffffffffffffffffffff1681526020019081526020015f20600901600201819055505f805f8373ffffffffffffffffffffffffffffffffffffffff1673ffffffffffffffffffffffffffffffffffffffff1681526020019081526020015f206009016004015f6101000a81548160ff0219169083151502179055507f94bab20b79ec2b6268976065075e6b4665591d0b6e0c6a65b04f6f2b2488f936815f808473ffffffffffffffffffffffffffffffffffffffff1673ffffffffffffffffffffffffffffffffffffffff1681526020019081526020015f206009015f01604051610a42929190612e93565b60405180910390a150565b60015f9054906101000a900473ffffffffffffffffffffffffffffffffffffffff1673ffffffffffffffffffffffffffffffffffffffff163373ffffffffffffffffffffffffffffffffffffffff1614610adc576040517f08c379a0000000000000000000000000000000000000000000000000000000008152600401610ad390612c80565b60405180910390fd5b6040518060400160405280838152602001828152505f808573ffffffffffffffffffffffffffffffffffffffff1673ffffffffffffffffffffffffffffffffffffffff1681526020019081526020015f205f820151815f015f820151815f019081610b479190612adb565b506020820151816001019081610b5d9190612adb565b506040820151816002019081610b739190612adb565b506060820151816003019081610b899190612adb565b506080820151816004019081610b9f9190612adb565b5060a0820151816005019081610bb59190612adb565b5060c0820151816006019081610bcb9190612adb565b5060e0820151816007019081610be19190612adb565b50610100820151816008019081610bf89190612adb565b5050506020820151816009015f820151815f019081610c179190612adb565b506020820151816001019081610c2d9190612adb565b50604082015181600201556060820151816003019081610c4d9190612adb565b506080820151816004015f6101000a81548160ff02191690831515021790555060a0820151816005019081610c829190612adb565b505050905050505050565b5f602052805f5260405f205f91509050805f01604051806101200160405290815f82018054610cbb906127da565b80601f0160208091040260200160405190810160405280929190818152602001828054610ce7906127da565b8015610d325780601f10610d0957610100808354040283529160200191610d32565b820191905f5260205f20905b815481529060010190602001808311610d1557829003601f168201915b50505050508152602001600182018054610d4b906127da565b80601f0160208091040260200160405190810160405280929190818152602001828054610d77906127da565b8015610dc25780601f10610d9957610100808354040283529160200191610dc2565b820191905f5260205f20905b815481529060010190602001808311610da557829003601f168201915b50505050508152602001600282018054610ddb906127da565b80601f0160208091040260200160405190810160405280929190818152602001828054610e07906127da565b8015610e525780601f10610e2957610100808354040283529160200191610e52565b820191905f5260205f20905b815481529060010190602001808311610e3557829003601f168201915b50505050508152602001600382018054610e6b906127da565b80601f0160208091040260200160405190810160405280929190818152602001828054610e97906127da565b8015610ee25780601f10610eb957610100808354040283529160200191610ee2565b820191905f5260205f20905b815481529060010190602001808311610ec557829003601f168201915b50505050508152602001600482018054610efb906127da565b80601f0160208091040260200160405190810160405280929190818152602001828054610f27906127da565b8015610f725780601f10610f4957610100808354040283529160200191610f72565b820191905f5260205f20905b815481529060010190602001808311610f5557829003601f168201915b50505050508152602001600582018054610f8b906127da565b80601f0160208091040260200160405190810160405280929190818152602001828054610fb7906127da565b80156110025780601f10610fd957610100808354040283529160200191611002565b820191905f5260205f20905b815481529060010190602001808311610fe557829003601f168201915b5050505050815260200160068201805461101b906127da565b80601f0160208091040260200160405190810160405280929190818152602001828054611047906127da565b80156110925780601f1061106957610100808354040283529160200191611092565b820191905f5260205f20905b81548152906001019060200180831161107557829003601f168201915b505050505081526020016007820180546110ab906127da565b80601f01602080910402602001604051908101604052809291908181526020018280546110d7906127da565b80156111225780601f106110f957610100808354040283529160200191611122565b820191905f5260205f20905b81548152906001019060200180831161110557829003601f168201915b5050505050815260200160088201805461113b906127da565b80601f0160208091040260200160405190810160405280929190818152602001828054611167906127da565b80156111b25780601f10611189576101008083540402835291602001916111b2565b820191905f5260205f20905b81548152906001019060200180831161119557829003601f168201915b50505050508152505090806009016040518060c00160405290815f820180546111da906127da565b80601f0160208091040260200160405190810160405280929190818152602001828054611206906127da565b80156112515780601f1061122857610100808354040283529160200191611251565b820191905f5260205f20905b81548152906001019060200180831161123457829003601f168201915b5050505050815260200160018201805461126a906127da565b80601f0160208091040260200160405190810160405280929190818152602001828054611296906127da565b80156112e15780601f106112b8576101008083540402835291602001916112e1565b820191905f5260205f20905b8154815290600101906020018083116112c457829003601f168201915b5050505050815260200160028201548152602001600382018054611304906127da565b80601f0160208091040260200160405190810160405280929190818152602001828054611330906127da565b801561137b5780601f106113525761010080835404028352916020019161137b565b820191905f5260205f20905b81548152906001019060200180831161135e57829003601f168201915b50505050508152602001600482015f9054906101000a900460ff161515151581526020016005820180546113ae906127da565b80601f01602080910402602001604051908101604052809291908181526020018280546113da906127da565b80156114255780601f106113fc57610100808354040283529160200191611425565b820191905f5260205f20905b81548152906001019060200180831161140857829003601f168201915b505050505081525050905082565b60015f9054906101000a900473ffffffffffffffffffffffffffffffffffffffff1673ffffffffffffffffffffffffffffffffffffffff163373ffffffffffffffffffffffffffffffffffffffff16146114c2576040517f08c379a00000000000000000000000000000000000000000000000000000000081526004016114b990612c80565b60405180910390fd5b5f808273ffffffffffffffffffffffffffffffffffffffff1673ffffffffffffffffffffffffffffffffffffffff1681526020019081526020015f205f8082015f8082015f6115119190611e11565b600182015f6115209190611e11565b600282015f61152f9190611e11565b600382015f61153e9190611e11565b600482015f61154d9190611e11565b600582015f61155c9190611e11565b600682015f61156b9190611e11565b600782015f61157a9190611e11565b600882015f6115899190611e11565b5050600982015f8082015f61159e9190611e11565b600182015f6115ad9190611e11565b600282015f9055600382015f6115c39190611e11565b600482015f6101000a81549060ff0219169055600582015f6115e59190611e11565b5050505050565b6115f4611e4e565b6115fc611e9a565b5f808473ffffffffffffffffffffffffffffffffffffffff1673ffffffffffffffffffffffffffffffffffffffff1681526020019081526020015f205f015f808573ffffffffffffffffffffffffffffffffffffffff1673ffffffffffffffffffffffffffffffffffffffff1681526020019081526020015f2060090181604051806101200160405290815f82018054611695906127da565b80601f01602080910402602001604051908101604052809291908181526020018280546116c1906127da565b801561170c5780601f106116e35761010080835404028352916020019161170c565b820191905f5260205f20905b8154815290600101906020018083116116ef57829003601f168201915b50505050508152602001600182018054611725906127da565b80601f0160208091040260200160405190810160405280929190818152602001828054611751906127da565b801561179c5780601f106117735761010080835404028352916020019161179c565b820191905f5260205f20905b81548152906001019060200180831161177f57829003601f168201915b505050505081526020016002820180546117b5906127da565b80601f01602080910402602001604051908101604052809291908181526020018280546117e1906127da565b801561182c5780601f106118035761010080835404028352916020019161182c565b820191905f5260205f20905b81548152906001019060200180831161180f57829003601f168201915b50505050508152602001600382018054611845906127da565b80601f0160208091040260200160405190810160405280929190818152602001828054611871906127da565b80156118bc5780601f10611893576101008083540402835291602001916118bc565b820191905f5260205f20905b81548152906001019060200180831161189f57829003601f168201915b505050505081526020016004820180546118d5906127da565b80601f0160208091040260200160405190810160405280929190818152602001828054611901906127da565b801561194c5780601f106119235761010080835404028352916020019161194c565b820191905f5260205f20905b81548152906001019060200180831161192f57829003601f168201915b50505050508152602001600582018054611965906127da565b80601f0160208091040260200160405190810160405280929190818152602001828054611991906127da565b80156119dc5780601f106119b3576101008083540402835291602001916119dc565b820191905f5260205f20905b8154815290600101906020018083116119bf57829003601f168201915b505050505081526020016006820180546119f5906127da565b80601f0160208091040260200160405190810160405280929190818152602001828054611a21906127da565b8015611a6c5780601f10611a4357610100808354040283529160200191611a6c565b820191905f5260205f20905b815481529060010190602001808311611a4f57829003601f168201915b50505050508152602001600782018054611a85906127da565b80601f0160208091040260200160405190810160405280929190818152602001828054611ab1906127da565b8015611afc5780601f10611ad357610100808354040283529160200191611afc565b820191905f5260205f20905b815481529060010190602001808311611adf57829003601f168201915b50505050508152602001600882018054611b15906127da565b80601f0160208091040260200160405190810160405280929190818152602001828054611b41906127da565b8015611b8c5780601f10611b6357610100808354040283529160200191611b8c565b820191905f5260205f20905b815481529060010190602001808311611b6f57829003601f168201915b5050505050815250509150806040518060c00160405290815f82018054611bb2906127da565b80601f0160208091040260200160405190810160405280929190818152602001828054611bde906127da565b8015611c295780601f10611c0057610100808354040283529160200191611c29565b820191905f5260205f20905b815481529060010190602001808311611c0c57829003601f168201915b50505050508152602001600182018054611c42906127da565b80601f0160208091040260200160405190810160405280929190818152602001828054611c6e906127da565b8015611cb95780601f10611c9057610100808354040283529160200191611cb9565b820191905f5260205f20905b815481529060010190602001808311611c9c57829003601f168201915b5050505050815260200160028201548152602001600382018054611cdc906127da565b80601f0160208091040260200160405190810160405280929190818152602001828054611d08906127da565b8015611d535780601f10611d2a57610100808354040283529160200191611d53565b820191905f5260205f20905b815481529060010190602001808311611d3657829003601f168201915b50505050508152602001600482015f9054906101000a900460ff16151515158152602001600582018054611d86906127da565b80601f0160208091040260200160405190810160405280929190818152602001828054611db2906127da565b8015611dfd5780601f10611dd457610100808354040283529160200191611dfd565b820191905f5260205f20905b815481529060010190602001808311611de057829003601f168201915b505050505081525050905091509150915091565b508054611e1d906127da565b5f825580601f10611e2e5750611e4b565b601f0160209004905f5260205f2090810190611e4a9190611ed0565b5b50565b6040518061012001604052806060815260200160608152602001606081526020016060815260200160608152602001606081526020016060815260200160608152602001606081525090565b6040518060c0016040528060608152602001606081526020015f8152602001606081526020015f15158152602001606081525090565b5b80821115611ee7575f815f905550600101611ed1565b5090565b5f604051905090565b5f80fd5b5f80fd5b5f80fd5b5f80fd5b5f601f19601f8301169050919050565b7f4e487b71000000000000000000000000000000000000000000000000000000005f52604160045260245ffd5b611f4a82611f04565b810181811067ffffffffffffffff82111715611f6957611f68611f14565b5b80604052505050565b5f611f7b611eeb565b9050611f878282611f41565b919050565b5f67ffffffffffffffff821115611fa657611fa5611f14565b5b611faf82611f04565b9050602081019050919050565b828183375f83830152505050565b5f611fdc611fd784611f8c565b611f72565b905082815260208101848484011115611ff857611ff7611f00565b5b612003848285611fbc565b509392505050565b5f82601f83011261201f5761201e611efc565b5b813561202f848260208601611fca565b91505092915050565b5f6020828403121561204d5761204c611ef4565b5b5f82013567ffffffffffffffff81111561206a57612069611ef8565b5b6120768482850161200b565b91505092915050565b5f73ffffffffffffffffffffffffffffffffffffffff82169050919050565b5f6120a88261207f565b9050919050565b6120b88161209e565b81146120c2575f80fd5b50565b5f813590506120d3816120af565b92915050565b5f602082840312156120ee576120ed611ef4565b5b5f6120fb848285016120c5565b91505092915050565b5f80fd5b5f80fd5b5f610120828403121561212257612121612104565b5b61212d610120611f72565b90505f82013567ffffffffffffffff81111561214c5761214b612108565b5b6121588482850161200b565b5f83015250602082013567ffffffffffffffff81111561217b5761217a612108565b5b6121878482850161200b565b602083015250604082013567ffffffffffffffff8111156121ab576121aa612108565b5b6121b78482850161200b565b604083015250606082013567ffffffffffffffff8111156121db576121da612108565b5b6121e78482850161200b565b606083015250608082013567ffffffffffffffff81111561220b5761220a612108565b5b6122178482850161200b565b60808301525060a082013567ffffffffffffffff81111561223b5761223a612108565b5b6122478482850161200b565b60a08301525060c082013567ffffffffffffffff81111561226b5761226a612108565b5b6122778482850161200b565b60c08301525060e082013567ffffffffffffffff81111561229b5761229a612108565b5b6122a78482850161200b565b60e08301525061010082013567ffffffffffffffff8111156122cc576122cb612108565b5b6122d88482850161200b565b6101008301525092915050565b5f819050919050565b6122f7816122e5565b8114612301575f80fd5b50565b5f81359050612312816122ee565b92915050565b5f8115159050919050565b61232c81612318565b8114612336575f80fd5b50565b5f8135905061234781612323565b92915050565b5f60c0828403121561236257612361612104565b5b61236c60c0611f72565b90505f82013567ffffffffffffffff81111561238b5761238a612108565b5b6123978482850161200b565b5f83015250602082013567ffffffffffffffff8111156123ba576123b9612108565b5b6123c68482850161200b565b60208301525060406123da84828501612304565b604083015250606082013567ffffffffffffffff8111156123fe576123fd612108565b5b61240a8482850161200b565b606083015250608061241e84828501612339565b60808301525060a082013567ffffffffffffffff81111561244257612441612108565b5b61244e8482850161200b565b60a08301525092915050565b5f805f6060848603121561247157612470611ef4565b5b5f61247e868287016120c5565b935050602084013567ffffffffffffffff81111561249f5761249e611ef8565b5b6124ab8682870161210c565b925050604084013567ffffffffffffffff8111156124cc576124cb611ef8565b5b6124d88682870161234d565b9150509250925092565b6124eb8161209e565b82525050565b5f6020820190506125045f8301846124e2565b92915050565b5f81519050919050565b5f82825260208201905092915050565b5f5b83811015612541578082015181840152602081019050612526565b5f8484015250505050565b5f6125568261250a565b6125608185612514565b9350612570818560208601612524565b61257981611f04565b840191505092915050565b5f61012083015f8301518482035f86015261259f828261254c565b915050602083015184820360208601526125b9828261254c565b915050604083015184820360408601526125d3828261254c565b915050606083015184820360608601526125ed828261254c565b91505060808301518482036080860152612607828261254c565b91505060a083015184820360a0860152612621828261254c565b91505060c083015184820360c086015261263b828261254c565b91505060e083015184820360e0860152612655828261254c565b915050610100830151848203610100860152612671828261254c565b9150508091505092915050565b612687816122e5565b82525050565b61269681612318565b82525050565b5f60c083015f8301518482035f8601526126b6828261254c565b915050602083015184820360208601526126d0828261254c565b91505060408301516126e5604086018261267e565b50606083015184820360608601526126fd828261254c565b9150506080830151612712608086018261268d565b5060a083015184820360a086015261272a828261254c565b9150508091505092915050565b5f6040820190508181035f83015261274f8185612584565b90508181036020830152612763818461269c565b90509392505050565b5f81905092915050565b50565b5f6127845f8361276c565b915061278f82612776565b5f82019050919050565b5f6127a382612779565b9150819050919050565b7f4e487b71000000000000000000000000000000000000000000000000000000005f52602260045260245ffd5b5f60028204905060018216806127f157607f821691505b602082108103612804576128036127ad565b5b50919050565b5f819050815f5260205f209050919050565b5f8154612828816127da565b612832818661276c565b9450600182165f811461284c576001811461286157612893565b60ff1983168652811515820286019350612893565b61286a8561280a565b5f5b8381101561288b5781548189015260018201915060208101905061286c565b838801955050505b50505092915050565b5f6128a7828461281c565b915081905092915050565b5f82825260208201905092915050565b7f4f6e6c7920746561636865722063616e20706572666f726d20746869732061635f8201527f74696f6e00000000000000000000000000000000000000000000000000000000602082015250565b5f61291c6024836128b2565b9150612927826128c2565b604082019050919050565b5f6020820190508181035f83015261294981612910565b9050919050565b5f6020601f8301049050919050565b5f82821b905092915050565b5f6008830261299a7fffffffffffffffffffffffffffffffffffffffffffffffffffffffffffffffff8261295f565b6129a4868361295f565b95508019841693508086168417925050509392505050565b5f819050919050565b5f6129df6129da6129d5846122e5565b6129bc565b6122e5565b9050919050565b5f819050919050565b6129f8836129c5565b612a0c612a04826129e6565b84845461296b565b825550505050565b5f90565b612a20612a14565b612a2b8184846129ef565b505050565b5b81811015612a4e57612a435f82612a18565b600181019050612a31565b5050565b601f821115612a9357612a648161280a565b612a6d84612950565b81016020851015612a7c578190505b612a90612a8885612950565b830182612a30565b50505b505050565b5f82821c905092915050565b5f612ab35f1984600802612a98565b1980831691505092915050565b5f612acb8383612aa4565b9150826002028217905092915050565b612ae48261250a565b67ffffffffffffffff811115612afd57612afc611f14565b5b612b0782546127da565b612b12828285612a52565b5f60209050601f831160018114612b43575f8415612b31578287015190505b612b3b8582612ac0565b865550612ba2565b601f198416612b518661280a565b5f5b82811015612b7857848901518255600182019150602085019450602081019050612b53565b86831015612b955784890151612b91601f891682612aa4565b8355505b6001600288020188555050505b505050505050565b5f612bb48261250a565b612bbe81856128b2565b9350612bce818560208601612524565b612bd781611f04565b840191505092915050565b5f604082019050612bf55f8301856124e2565b8181036020830152612c078184612baa565b90509392505050565b7f4f6e6c7920686561646d61737465722063616e20706572666f726d20746869735f8201527f20616374696f6e00000000000000000000000000000000000000000000000000602082015250565b5f612c6a6027836128b2565b9150612c7582612c10565b604082019050919050565b5f6020820190508181035f830152612c9781612c5e565b9050919050565b7f4e6f2070656e64696e67207265717565737400000000000000000000000000005f82015250565b5f612cd26012836128b2565b9150612cdd82612c9e565b602082019050919050565b5f6020820190508181035f830152612cff81612cc6565b9050919050565b5f81549050612d14816127da565b9050919050565b5f819050815f5260205f209050919050565b818103612d3b575050612e10565b612d4482612d06565b67ffffffffffffffff811115612d5d57612d5c611f14565b5b612d6782546127da565b612d72828285612a52565b5f601f831160018114612d9f575f8415612d8d578287015490505b612d978582612ac0565b865550612e09565b601f198416612dad87612d1b565b9650612db88661280a565b5f5b82811015612ddf57848901548255600182019150600185019450602081019050612dba565b86831015612dfc5784890154612df8601f891682612aa4565b8355505b6001600288020188555050505b5050505050505b565b5f8154612e1e816127da565b612e2881866128b2565b9450600182165f8114612e425760018114612e5857612e8a565b60ff198316865281151560200286019350612e8a565b612e618561280a565b5f5b83811015612e8257815481890152600182019150602081019050612e63565b808801955050505b50505092915050565b5f604082019050612ea65f8301856124e2565b8181036020830152612eb88184612e12565b9050939250505056fea26469706673582212200ffdd38ec1e1b6fce5a59b9210047a9ed84cad730178cc42b1d6c061190fd45a64736f6c63430008150033",
  "immutableReferences": {},
  "source": "// SPDX-License-Identifier: MIT\r\npragma solidity ^0.8.0;\r\n\r\ncontract LMS {\r\n    struct TeacherInfo {\r\n        string name;\r\n        string email;\r\n        string password;\r\n        string serviceType;\r\n        string cnic;\r\n        string dob;\r\n        string contactNumber;\r\n        string maritalStatus;\r\n        string homeAddress;\r\n    }\r\n\r\n    struct TeacherStatus {\r\n        string currentSchool;\r\n        string dateOfJoining;\r\n        uint256 dateOfJoiningNewSchool;\r\n        string postedAs;\r\n        bool isRequestPending;\r\n        string newSchoolRequest;\r\n    }\r\n\r\n    struct Teacher {\r\n        TeacherInfo info;\r\n        TeacherStatus status;\r\n    }\r\n\r\n    mapping(address => Teacher) public teachers;\r\n    address public headmaster;\r\n\r\n    event SchoolChangeRequest(address teacher, string newSchool);\r\n    event SchoolChangeApproval(address teacher, string newSchool);\r\n    event SchoolChangeRejection(address teacher);\r\n\r\n    modifier onlyHeadmaster() {\r\n        require(msg.sender == headmaster, \"Only headmaster can perform this action\");\r\n        _;\r\n    }\r\n\r\n    modifier onlyTeacher() {\r\n        require(keccak256(abi.encodePacked(teachers[msg.sender].info.cnic)) != keccak256(abi.encodePacked('')), \"Only teacher can perform this action\");\r\n        _;\r\n    }\r\n\r\n    constructor() {\r\n        headmaster = msg.sender;\r\n    }\r\n\r\n    function addTeacher(address teacherAddress, TeacherInfo memory info, TeacherStatus memory status) public onlyHeadmaster {\r\n        teachers[teacherAddress] = Teacher(info, status);\r\n    }\r\n\r\n    function updateTeacher(address teacherAddress, TeacherInfo memory info, TeacherStatus memory status) public onlyHeadmaster {\r\n        teachers[teacherAddress] = Teacher(info, status);\r\n    }\r\n\r\n    function deleteTeacher(address teacherAddress) public onlyHeadmaster {\r\n        delete teachers[teacherAddress];\r\n    }\r\n\r\n    function requestSchoolChange(string memory newSchool) public onlyTeacher {\r\n        teachers[msg.sender].status.isRequestPending = true;\r\n        teachers[msg.sender].status.newSchoolRequest = newSchool;\r\n        emit SchoolChangeRequest(msg.sender, newSchool);\r\n    }\r\n\r\n    function approveSchoolChange(address teacherAddress) public onlyHeadmaster {\r\n        require(teachers[teacherAddress].status.isRequestPending, \"No pending request\");\r\n        teachers[teacherAddress].status.currentSchool = teachers[teacherAddress].status.newSchoolRequest;\r\n        teachers[teacherAddress].status.dateOfJoiningNewSchool = block.timestamp;\r\n        teachers[teacherAddress].status.isRequestPending = false;\r\n        emit SchoolChangeApproval(teacherAddress, teachers[teacherAddress].status.currentSchool);\r\n    }\r\n\r\n    function rejectSchoolChange(address teacherAddress) public onlyHeadmaster {\r\n        require(teachers[teacherAddress].status.isRequestPending, \"No pending request\");\r\n        teachers[teacherAddress].status.isRequestPending = false;\r\n        emit SchoolChangeRejection(teacherAddress);\r\n    }\r\n\r\n    function getTeacher(address teacherAddress) public view returns (TeacherInfo memory, TeacherStatus memory) {\r\n        return (teachers[teacherAddress].info, teachers[teacherAddress].status);\r\n    }\r\n}\r\n",
  "sourcePath": "F:\\Random Learning\\EOD\\eod\\contracts\\LMS.sol",
  "compiler": {
    "name": "solc",
    "version": "0.8.21+commit.d9974bed.Emscripten.clang"
  },
  "schemaVersion": "3.4.16",
  "updatedAt": "2024-06-30T13:53:42.368Z",
  "networkType": "ethereum",
  "devdoc": {
    "kind": "dev",
    "methods": {},
    "version": 1
  },
  "userdoc": {
    "kind": "user",
    "methods": {},
    "version": 1
  }
}